:1000000000308A0019280000223084008313000881
:10001000031918280130F800F701F70B0D28F80B29
:100020000C28F130F700F70B13280000800B0A288A
:100030000800840183131F30830583161F149F1447
:100040001F159F1107309C00FF308312A0008316FC
:100050001F149F141F159F111F1383121F139F132B
:1000600083169F1383121F1483160912831294128E
:10007000A0122008831687008312201620088316FA
:1000800087008312A0112008831687000130831295
:1000900094000030831694000108C73908388100A5
:1000A000831290010030F800920000308316920015
:1000B00007309C00050885000430F700F70B5E2828
:1000C00061281C0883120D1383169D018813831267
:1000D0008817831608138312081783168812831251
:1000E0008816831608128312081683168811831245
:1000F0008815831608118312081583168810831239
:10010000881483160810831208146430A200042097
:1001100083168801F030831288000430A100FA3081
:10012000A2000420A10B8F28831688010F308312B0
:1001300088000430A100FA30A2000420A10B9B2803
:0401400088286300A8
:02400E003A3F37
:00000001FF
;PIC16F877A
;CRC=D0A0  CREATED="16-jul-24 18:08"
