:1000000000308A0088280000233084008313000811
:10001000031918280130F800F701F70B0D28F80B29
:100020000C28F130F700F70B13280000800B0A288A
:100030000800831608108312081083168813831291
:1000400088132830A200FA30A3000420A20B232832
:1000500083160810831208148316881083128810E0
:100060000C30A200FA30A3000420A20B3228831621
:100070008810831288148316081183120811043023
:10008000A200FA30A3000420A20B41288316881393
:100090008312881783160813831208132830A200CE
:1000A000FA30A3000420A20B5028831608138312F1
:1000B0000817A1012108043C031C76288316881325
:1000C000831288170230A200FA30A3000420A20B8A
:1000D000642883168813831288130230A200FA3032
:1000E000A3000420A20B6F28A10A5A280230A20004
:1000F000FA30A3000420A20B78288316081183127B
:10010000081583160810831208108A110A12E228B3
:10011000840183131F30830583161F149F141F153A
:100120009F1107309C00FF308312A00083161F141C
:100130009F141F159F111F1383121F139F138316E4
:100140009F1383121F148316091283129412A01294
:100150002008831687008312201620088316870044
:100160008312A011200883168700013083129400A7
:100170000030831694000108C739083881008312C3
:1001800090010030F8009200003083169200073092
:100190009C00050885000430F700F70BCD28D02817
:1001A0001C0883120D1383169D010810831208107A
:1001B0008316881383128813831606148312061875
:0A01C000DC2819288316D5286300F7
:02400E003A3F37
:00000001FF
;PIC16F877A
;CRC=D8E5  CREATED="08-fev-24 01:48"
