:1000000000308A0039280000FF00030E8301A100A0
:100010000A08A0008A010408A2007708A300780853
:10002000A4007908A5007A08A600831383120B1E8A
:100030001B288B182C28220884002308F70024088A
:10004000F8002508F9002608FA0020088A00210E89
:100050008300FF0E7F0E09008A110A122F288B10D1
:10006000831608110430831288068B108A110A1235
:100070001B28840183131F30830583161F149F14CC
:100080001F159F1107309C00FF308312A7008316B5
:100090001F149F141F159F111F1383121F139F13EB
:1000A00083169F1383121F1483160912831294124E
:1000B000A71227088316870083122716270883169E
:1000C00087008312A7112708831687000130831247
:1000D00094000030831694000108C7390838810065
:1000E000831290010030F8009200003083169200D5
:1000F00007309C00050885001030F700F70B7E28BC
:1001000000001C0883120D1383169D010811831231
:1001100008118B108316011383120B16C0308B0449
:0401200090286300C0
:02400E003A3F37
:00000001FF
;PIC16F877A
;CRC=BA63  CREATED="01-ago-24 10:50"
