:1000000000308A0018280000233084008313000881
:10001000031917280630F800F701F70B0D28F80B25
:100020000C287B30F700F70B1328800B0A280800F8
:10003000840183131F30830583161F149F141F151B
:100040009F1107309C00FF308312A20083161F14FB
:100050009F141F159F111F1383121F139F138316C5
:100060009F1383121F148316091283129412A21273
:10007000220883168700831222162208831687001F
:100080008312A21122088316870001308312940084
:100090000030831694000108C739083881008312A4
:1000A00090010030F80006389200FF30831692006D
:1000B00083122211220883168700831207110C3045
:1000C0009700A21422088316870083129D018030B6
:1000D00095001708CF399700073083169C00050854
:1000E00085001030F700F70B732800001C088312FE
:1000F0000D1383169D018312A1010130A000210878
:10010000033C031CA328031D89282008FE3C031C74
:10011000A3282108F9002008F800F90CF80CF90CC4
:10012000F80CF90C78089500F90C790C3039F700C7
:100130001708CF39770497000A30A3000420A00ADB
:100140000319A10A7F280330A100FF30A000A108F5
:10015000031DAE282008013C0318C9282108F90016
:100160002008F800F90CF80CF90CF80CF90C7808D8
:100170009500F90C790C3039F7001708CF3977045E
:1001800097000A30A300042020080319A103A0034C
:06019000A7287C28630093
:02400E007A3FF7
:00000001FF
;PIC16F877A
;CRC=BA7F  CREATED="15-fev-24 18:33"
