:1000000002308A004D2A000083161F109F141F150E
:100010009F151F1383121F139F1383169F138312A1
:100020001F140030F8001F08C73978049F000430FF
:10003000F700F70B19281C288A110A125C2A1F15D1
:100040001F1920281E08A901A8008E30F7002908D2
:10005000F8002808F900FA01F808031D3928790882
:10006000F800F9010830F702F808031D3928F701F4
:1000700041280310F81B4028F90DF80DF703392823
:10008000F8137A08AB007908AA007808A900770865
:10009000A800AF01AE017F30AD008630AC0028086B
:1000A00003191429B4002C0803191429B402031CE1
:1000B0005E287F30B4070318142964288130B40205
:1000C000031C1429031914293408F700F801F90155
:1000D000FA01B3012908B200B2172A08B1002B08AF
:1000E000B0001930B4002F08B0020318872801307F
:1000F000B10203188728B20203188728B302031835
:100100008728B30AB20AB10A2F08B007B9282E0807
:10011000B1020318A2280130B2020318A228B302C8
:100120000318A228B30AB20A2E08B1072F08B00795
:10013000031CB928B10A031DB928B20A031DB92846
:10014000B30AB9282D088038B2020318B828013044
:10015000B3020318B828B30A2D088038B2072E0856
:10016000B107031C9628B20A031D9628B30A9628E5
:100170007A14B40BBC28C7280310B00DB10DB20D12
:10018000B30D0310FA0DF90DF80DB50D7328351CDC
:10019000CF280310F80CF90CFA0CB50CD228F70391
:1001A00003191429B51BFB280310B00DB10DB20DB6
:1001B000B30D2F08B0020318E7280130B10203186D
:1001C000E728B2020318E728B302031C0A292E0805
:1001D000B1020318F2280130B2020318F228B30268
:1001E000031C0A292D088038B2020318FB280130AD
:1001F000B302031C0A29FA0A031D0A29F90A031D7E
:100200000A29F80A031D0A29F70A03191429F80C08
:10021000F90CFA0C2908B4002D08B406B41F1229F1
:10022000F8171829F8131829F701F801F901FA014C
:100230007708A7007808A8007908A9007A08AA001A
:100240002A08AE002908AD002808AC002708AB003A
:10025000B201B1011630B0008730AF002B0803198E
:100260009E29B3002F0803199E29B30703183F29BD
:100270007F30B302031C9E2903199E294329813034
:10028000B30703189E293308F700F801F901FA01B2
:100290002C08B700B7172D08B6002E08B500183087
:1002A000B300B401351C6C293208FA07031C5E291F
:1002B000F90A031D5E29F80A0319B4173108F90772
:1002C000031C6529F80A0319B4173008AD00AD17EF
:1002D0002D08F8070318B417B40DF80CF90CFA0C34
:1002E000B70CB60CB50C0310B30B51290130F7074E
:1002F00003189E29F81B8329B70DFA0DF90DF80D87
:10030000F70303199E29B71F9429FA0A031D94299C
:10031000F90A031D9429F80A031D9429F80CF90C15
:10032000FA0CF70A03199E292C08B4003008B40609
:10033000B41F9C29F817A229F813A229F701F80184
:10034000F901FA017A08A6007908A5007808A40046
:100350007708A3002608AA002508A9002408A800F9
:100360002308A7008E30F7002708F7022808F900B5
:100370002908F800F917F7080319C9290310F90823
:10038000031DC529F8080319C929F90CF80CF70B46
:10039000BE29A81FD029F809F909F80A0319F90A92
:1003A00078088A110A12902A23080739F700230CCB
:1003B000F800F80CF80C1F30F805780825078400C1
:1003C000831326188317F801F80AF70AE829F80DAD
:1003D000F70BE729A4080319F02978088004F3290A
:1003E000F809780880058A110A12172A23080739A4
:1003F000F700230CF800F80CF80C1F30F80578080B
:10040000240784008313251883170008F800F70ACF
:100410000A2AF80CF70B092A8A110A121C2A220848
:10042000A3000130A400A6018030A500D429220831
:10043000A300A501A401F629003078180130F800C6
:1004400008008316061183120615F930F700F70B22
:10045000272A2A2A8316061183120611F930F7007B
:10046000F70B302A332A8A110A12A32A2230840079
:100470008313000803194A2A0130F800F701F70B2B
:100480003F2AF80B3E2AF130F700F70B452A00000F
:10049000800B3C2A8A110A12AB2A840183131F3075
:1004A000830583161F149F141F159F1107309C008E
:1004B000FF308312A00004288316091283129412BD
:1004C000A0122008831687008312201620088316A6
:1004D00087008312A0112008831687000130831241
:1004E00094000030831694000108C7390838810051
:1004F000831290010030F8009200003083169200C1
:1005000007309C00050885000430F700F70B862AA9
:10051000892A1C0883120D1383169D0183121F283C
:100520007808A10021081E3C0318A42A3030A2003C
:100530000F22F808031DA22A3130A2000F22F8086A
:100540000319A42A212AA82A831606118312061148
:0A0550000A30A200362A8F2A630049
:02400E003A3F37
:00000001FF
;PIC16F877A
;CRC=ACE7  CREATED="31-jul-24 20:37"
