:1000000000308A0039280000FF00030E8301A100A0
:100010000A08A0008A010408A2007708A300780853
:10002000A4007908A5007A08A600831383128C30F7
:100030008400801E1D288C1A2E2822088400230884
:10004000F7002408F8002508F9002608FA0020081F
:100050008A00210E8300FF0E7F0E09008A110A120A
:1000600031288C1E31281A08A7008C128A110A1216
:100070001D28840183131F3083054D30831699009A
:10008000A630980090308312980083161F149F1496
:100090001F159F1107309C00FF308312A8008316A4
:1000A0001F149F141F159F111F1383121F139F13DB
:1000B00083169F1383121F1483160912831294123E
:1000C000A81228088316870083122816280883168A
:1000D00087008312A8112808831687000130831235
:1000E00094000030831694000108C7390838810055
:1000F000831290010030F8009200003083169200C5
:1001000007309C00050885000430F700F70B8628AF
:1001100089281C0883120D1383169D018C16C0308C
:1001200083128B048030831687008312A80027086F
:10013000423C031DA0288316081083120814A82827
:100140002708413C031DA8288316081083120810B5
:040150009728630089
:02400E007A3FF7
:00000001FF
;PIC16F877A
;CRC=6A7F  CREATED="04-abr-24 18:24"
