:1000000000308A0004280000840183131F30830518
:1000100083161F149F141F159F1107309C007F30FB
:100020008312A0008430A1008930A2008E30A3008A
:100030009330A4009830A5009D30A600A230A70000
:10004000A730A800AB30A900B030AA00B530AB0093
:10005000B930AC00BE30AD00C230AE00C630AF002B
:10006000CA30B000CE30B100D230B200D630B300CA
:10007000DA30B400DD30B500E030B600E430B7006F
:10008000E730B800E930B900EC30BA00EF30BB001F
:10009000F130BC00F330BD00F530BE00F730BF00DA
:1000A000F930C000FA30C100FB30C200FD30C3009F
:1000B000C400FE30C500FF30C600C700C800FE30D7
:1000C000C900CA00FD30CB00FC30CC00CD00FA30B6
:1000D000CE00F930CF00F830D000F630D100F43047
:1000E000D200F230D300F030D400EE30D500EB3047
:1000F000D600E930D700E630D800E330D900E03050
:10010000DA00DC30DB00D930DC00D530DD00D13066
:10011000DE00CE30DF00CA30E000C630E100C13082
:10012000E200BD30E300B930E400B430E500B030A7
:10013000E600AB30E700A630E800A130E9009D30D2
:10014000EA009830EB009330EC008E30ED008930FF
:10015000EE008430EF007F30F0008316A0007A308C
:10016000A1007530A2007030A3006B30A40066308F
:10017000A5006130A6005D30A7005830A8005330BC
:10018000A9004E30AA004A30AB004530AC004130E7
:10019000AD003D30AE003830AF003430B00030300C
:1001A000B1002D30B2002930B3002530B400223028
:1001B000B5001E30B6001B30B7001830B80015303F
:1001C000B9001330BA001030BB000E30BC000C3048
:1001D000BD000A30BE000830BF000630C000053048
:1001E000C1000430C2000230C300C4000130C500A9
:1001F000C601C701C801C901CA000230CB00CC004A
:100200000430CD000530CE000630CF000830D000DD
:100210000A30D1000C30D2000E30D3001030D400A0
:100220001330D5001530D6001830D7001B30D80059
:100230001E30D9002230DA002530DB002930DC0006
:100240002D30DD003030DE003430DF003830E000AB
:100250003D30E1004130E2004530E3004A30E40047
:100260004E30E5005330E6005830E7005D30E800DE
:100270006130E9006630EA006B30EB007030EC0072
:100280007530ED007A30EE007F30EF00FF30F10086
:100290001F149F141F159F111F1383121F139F13E9
:1002A00083169F1383121F1483160912831294124C
:1002B000F112710883168700711671088700F11119
:1002C0007108870001308312940000308316940077
:1002D0000108C73908388100831290010030F80006
:1002E00005389200F9308316920071117108870069
:1002F000831207110C3097009501073083169C007C
:10030000050885000430F700F70B842987291C08AD
:1003100083120D1383169D01831203179001100899
:10032000513C031CA32920301007840083130008CC
:100330009300031395001730F700F70B9D29A029B0
:100340000317900A8F2990011008503C031CB8290C
:10035000A030100784008313000893000313950056
:100360001730F700F70BB229B5290317900AA42913
:040370008E2963006F
:02400E003A3F37
:00000001FF
;PIC16F877A
;CRC=86C5  CREATED="22-fev-24 16:43"
