:1000000000308A006F28000022308400831300082B
:10001000031918280130F800F701F70B0D28F80B29
:100020000C28F130F700F70B13280000800B0A288A
:1000300008000A30A302031C2728233084008313FE
:100040000310800C000803192728800B25280800BE
:10005000A1012108313C031C462883160810831295
:100060000814F930F700F70B3328362883160810E8
:10007000831208101330A20004200230A200F830CE
:10008000A3001920A20B3F28A10A29288A110A12CD
:10009000B828A1012108313C031C6C2883160810E4
:1000A000831208140230A20004200230A200F830AB
:1000B000A3001920A20B57288316081083120810DA
:1000C0001130A20004200230A200F830A300192051
:1000D000A20B6528A10A4A288A110A12C0288401A5
:1000E00083131F30830583161F149F141F159F1140
:1000F00007309C00FF308312A00083161F149F144A
:100100001F159F1183121F10831609128312941258
:10011000A012200883168700831220162008831659
:1001200087008312A01120088316870001308312F4
:1001300094000030831694000108C7390838810004
:10014000831290010030F800920000308316920074
:1001500007309C00050885000430F700F70BAE2837
:10016000B1281C0883120D1383169D0183122828C1
:100170001030A100FA30A2000420A10BBA284928AF
:100180001030A100FA30A2000420A10BC228B72829
:0201900063000A
:02400E003A3F37
:00000001FF
;PIC16F877A
;CRC=E853  CREATED="29-jul-24 21:50"
