:1000000001308A0092290000FF00030E8301A10045
:100010000A08A0008A010408A2007708A300780853
:10002000A4007908A5007A08A600831383128B1E0A
:100030001B280B192C28220884002308F700240809
:10004000F8002508F9002608FA0020088A00210E89
:100050008300FF0E7F0E09008A110A122F2801303B
:10006000A7070318A80A2808003C03184028FF3AED
:10007000031D3E282708813C03184028A801A7013A
:10008000A808031D4C282908270203184C288316AA
:1000900006108312061450288316061083120610C9
:1000A000A808031D5C282A08270203185C28831669
:1000B0008610831286146028831686108312861099
:1000C000A808031D6C282B08270203186C28831628
:1000D0000611831206157028831606118312061165
:1000E0000B118A110A121B2883160108C739083818
:1000F000810083128B16C0308B04E63081008A1198
:100100000A12E3293C083A02C4003B08C5003D0836
:10011000031C3D0FC50240084202F7004308FA00E5
:100120004108031C410FFA027708C6007A08C7008D
:100130004508C9004408C8004708CB004608CA0063
:100140001030CC00F701FA01C90CC80C031CAE2812
:100150004A08F7070318FA0A4B08FA07FA0CF70CD3
:10016000F90CF80CCC0BA4287908C5007808C40059
:100170003C083E02F7003F08FA003D08031C3D0F13
:10018000FA027708C6007A08C7004508C900440883
:10019000C8004708CB004608CA00F801F901F7017A
:1001A000FA014B08031DD7284A080319F12810301B
:1001B000CC000310C80DC90DF70DFA0D4B087A02DB
:1001C000031DE4284A087702031CED284A08F702B9
:1001D000031CFA034B08FA020314F80DF90DCC0BBB
:1001E000D9287908C5007808C40040087807F800C5
:1001F0007908FA0041080318410FFA077A08F90054
:100200000800BB013908BA00BD01BC01BF01B43010
:10021000BE00C1010B30C000C3013030C2008220DB
:100220007808A9000800BB013908BA00BD01BC016B
:10023000BF01B430BE00C1010B30C000C30130307B
:10024000C20082207808AA000800BB013908BA0061
:10025000BD01BC01BF01B430BE00C1010B30C00004
:10026000C3013030C20082207808AB00080039306A
:1002700084008313000803194B290130F800F701AB
:10028000F70B4029F80B3F29F130F700F70B46290F
:100290000000800B3D29080036083502031871293B
:1002A0003508B80038083602031C7029340B5C2965
:1002B0003808B90001216B293408023C031D642968
:1002C0003808B90013216B293408033C031D6B293E
:1002D0003808B90025213708B9003721B80A522952
:1002E00091293508B80036083802031C9129340BCF
:1002F0007D293808B90001218C293408023C031DEE
:1003000085293808B90013218C293408033C031DC2
:100310008C293808B90025213708B9003721B803DE
:1003200073290800840183131F308305A801A701E6
:1003300083161F149F141F159F1107309C00FF3058
:100340008312B30083161F149F141F159F111F13D0
:1003500083121F139F1383169F1383121F14831678
:10036000091283129412B312330883168700831282
:1003700033163308831687008312B31133088316AC
:100380008700013083129400003083169400010826
:10039000C73908388100831290010030F8009200BC
:1003A00000308316920007309C0005088500043059
:1003B000F700F70BD929DC291C0883120D138316CB
:1003C0009D0183127428B9010121B9011321B901DA
:1003D00025210430B400FA30B9003721B40BEB29E1
:1003E0000130B400B5015A30B6001430B7004C21CA
:1003F0000430B400FA30B9003721B40BFA290230C6
:10040000B400B5015A30B6001430B7004C210430A6
:10041000B400FA30B9003721B40B092A0330B40014
:10042000B5015A30B6001430B7004C210430B40086
:10043000FA30B9003721B40B182A0130B4005A3011
:10044000B500B430B6001430B7004C210430B4000D
:10045000FA30B9003721B40B282A0230B4005A30E0
:10046000B500B430B6001430B7004C210430B400ED
:10047000FA30B9003721B40B382A0330B4005A30AF
:10048000B500B430B6001430B7004C210430B400CD
:10049000FA30B9003721B40B482A0130B400B43027
:1004A000B500B6011430B7004C210430B400FA3066
:1004B000B9003721B40B572A0230B400B430B5006C
:1004C0005A30B6001430B7004C210430B400FA3072
:1004D000B9003721B40B672A0330B400B430B5003B
:1004E0005A30B6001430B7004C210430B400FA3052
:1004F000B9003721B40B772A0130B400B5015A3066
:10050000B6001430B7004C210430B400FA30B90002
:100510003721B40B862A0230B400B501B60114307D
:10052000B7004C210430B400FA30B9003721B40BC5
:10053000942A0330B400B501B6011430B7004C2141
:100540000430B400FA30B9003721B40BA22AF029E4
:02055000630046
:02400E003A3F37
:00000001FF
;PIC16F877A
;CRC=F1A6  CREATED="01-jul-24 09:19"
