:1000000000308A001A280000223084008313000880
:10001000031917280630F800F701F70B0D28F80B25
:100020000C287B30F700F70B1328800B0A288A1165
:100030000A128528840183131F30830581308316BB
:100040009900A630980090308312980083161F14F0
:100050009F141F159F1107309C00FF308312A000D2
:100060000830A10083161F109F101F159F111F1726
:1000700083121F179F1383169F1383121F14831657
:10008000091283129412A01220088316870083128B
:1000900020162008831687008312A01120088316DB
:1000A0008700013083129400003083169400010809
:1000B000C73908388100831290010030F80092009F
:1000C00000308316920007309C0005088500103030
:1000D000F700F70B692800001C0883120D13831624
:1000E0009D01413083120C1E7328990041300C1E73
:1000F0007728990020300C1E7B2899000A300C1EAE
:100100007F2899006430A2000428831671286300B8
:02400E007A3FF7
:00000001FF
;PIC16F877A
;CRC=FBA7  CREATED="26-mar-24 17:07"
