:1000000000308A0054280000FF00030E8301A10085
:100010000A08A0008A010408A2007708A300780853
:10002000A4007908A5007A08A600831383128C30F7
:100030008400001D1D280C192E2822088400230886
:10004000F7002408F8002508F9002608FA0020081F
:100050008A00210E8300FF0E7F0E09008A110A120A
:100060003128271C42288316081001308312880685
:1000700028152808831687008312970105309700FA
:10008000271050288316081001308312880628157F
:1000900028088316870083129701043097002714DD
:1000A0000C118A110A121D28840183131F30830545
:1000B000271083161F149F141F159F1107309C00D3
:1000C000FF308312A80083161F149F141F159F1161
:1000D0001F1383121F139F1383169F1383121F1462
:1000E0008316091283129412A81228088316870017
:1000F000831228162808831687008312A81128085F
:100100008316870001308312940000308316940018
:100110000108C7390838810085308312900000300B
:10012000F8009200003083169200831228152808E8
:1001300083168700831297010530970007308316D6
:100140009C00050885000430F700F70BA528A828B7
:100150001C0883120D1383169D010C15C0308312E9
:060160008B04B1286300CE
:02400E007A3FF7
:00000001FF
;PIC16F877A
;CRC=83BD  CREATED="18-jul-24 00:42"
