:1000000001308A004C290000FF00030E8301A1008B
:100010000A08A0008A010408A2007708A300780853
:10002000A4007908A5007A08A600831383128B1E0A
:100030001B280B192C28220884002308F700240809
:10004000F8002508F9002608FA0020088A00210E89
:100050008300FF0E7F0E09008A110A122F2801303B
:10006000A7070318A80A2808003C03184028FF3AED
:10007000031D3E282708813C03184028A801A7013A
:10008000A808031D4C282908270203184C288316AA
:1000900006108312061450288316061083120610C9
:1000A000A808031D5C282A08270203185C28831669
:1000B0008610831286146028831686108312861099
:1000C000A808031D6C282B08270203186C28831628
:1000D0000611831206157028831606118312061165
:1000E0000B118A110A121B2883160108C739083818
:1000F000810083128B16C0308B04E63081008A1198
:100100000A129D2937083502BF003608C00038089A
:10011000031C380FC0023B083D02F7003E08FA00FE
:100120003C08031C3C0FFA027708C1007A08C200A1
:100130004008C4003F08C3004208C6004108C5008B
:100140001030C700F701FA01C40CC30C031CAE2821
:100150004508F7070318FA0A4608FA07FA0CF70CDD
:10016000F90CF80CC70BA4287908C0007808BF0068
:1001700037083902F7003A08FA003808031C380F2C
:10018000FA027708C1007A08C2004008C4003F089C
:10019000C3004208C6004108C500F801F901F70193
:1001A000FA014608031DD72845080319F128103025
:1001B000C7000310C30DC40DF70DFA0D46087A02EF
:1001C000031DE42845087702031CED284508F702C3
:1001D000031CFA034608FA020314F80DF90DC70BC5
:1001E000D9287908C0007808BF003B087807F800D4
:1001F0007908FA003C0803183C0FFA077A08F9005E
:100200000800B6013408B500B801B701BA01B4302E
:10021000B900BC010B30BB00BE013030BD008220F4
:100220007808A9000800B6013408B500B801B70184
:10023000BA01B430B900BC010B30BB00BE01303094
:10024000BD0082207808AA000800B6013408B50075
:10025000B801B701BA01B430B900BC010B30BB0022
:10026000BE013030BD0082207808AB000800353078
:1002700084008313000803194B290130F800F701AB
:10028000F70B4029F80B3F29F130F700F70B46290F
:100290000000800B3D290800840183131F30830573
:1002A000A801A70183161F149F141F159F11073063
:1002B0009C00FF308312B30083161F149F141F1578
:1002C0009F111F1383121F139F1383169F138312F3
:1002D0001F148316091283129412B3123308831663
:1002E0008700831233163308831687008312B311F5
:1002F0003308831687000130831294000030831680
:1003000094000108C7390838810083129001003039
:10031000F800920000308316920007309C00050818
:1003200085000430F700F70B932996291C088312E7
:100330000D1383169D0183127428B4010121B401A9
:100340001321B40125210430B400FA30B50037215F
:10035000B40BA5295A30B40001210430B400FA309E
:10036000B5003721B40BAF295A30B4001321043043
:10037000B400FA30B5003721B40BB9295A30B400B3
:1003800025210430B400FA30B5003721B40BC3295D
:10039000B430B40001210430B400FA30B500372184
:1003A000B40BCD29B430B40013210430B400FA30BA
:1003B000B5003721B40BD729B430B400252104305F
:1003C000B400FA30B5003721B40BE129B4010121A2
:1003D0000430B400FA30B5003721B40BEA295A30A2
:1003E000B40013210430B400FA30B5003721B40B47
:1003F000F4295A30B40025210430B400FA30B50095
:100400003721B40BFE29B40101210430B400FA30C5
:10041000B5003721B40B072AB40113210430B4000E
:10042000FA30B5003721B40B102AB401252104306D
:10043000B400FA30B5003721B40B192A5A30B40091
:1004400001215A30B40013215A30B4002521AA29C1
:02045000630047
:02400E003A3F37
:00000001FF
;PIC16F877A
;CRC=D019  CREATED="29-jun-24 20:44"
