:1000000002308A00C72A00000A108A100A118207EB
:1000100028340C34013406348C29F53963396931BC
:10002000653A651061008A216F3774396F36201088
:100030002010201000018A20753AEF36613AE9312C
:100040006F10201020008A22E43AE330E3346F3747
:100050002010201020008C2070396537E4323A00DF
:100060008A162028C92100018A16A0207232F53490
:10007000EE3700018A16A0216F3774396F36000100
:10008000CE3AED32F237731065370001C539F13AD7
:100090006937E13900010C342034A134533475340C
:1000A000733463347234693462346534743465345F
:1000B00021340A340034C131F434F6303A10C3200C
:1000C0004D2841274100A03273104729412AC929F0
:1000D000A110A110A11000010C2643222021E13122
:1000E0006B26E933683A0A10201020104F2346107F
:1000F0002010201020000C2643222021E1316B2605
:10010000E933683A0A10201020104F2720102010E1
:10011000201000002C3084008313000803199E284F
:100120000130F800F701F70B9328F80B9228F13013
:10013000F700F70B99280000800B90280800083082
:10014000F80000008711A011200883168700000026
:100150008312B90D0712031CB3282016200883163A
:100160008700B7288312201220088316870000001A
:100170008312A0152008831687008312871DBE28CE
:10018000F80BA12800008711A01120088316870012
:10019000000083122016200883168700000000004C
:1001A0008312A0152008831687008312871DD62886
:1001B000F8010000071A78148711A011200883168F
:1001C00087008312071220122008831687008312EB
:1001D00008003708003A0319F128013A03191229D7
:1001E0003529360EF700F030F70577082504B800FA
:1001F000B9009F200000360EF700F030F7057708B1
:1002000004382504B800B9009F2006290000360EE6
:10021000F700F030F7057708FB392504B800B9007E
:100220009F203529360EF700F030F70577080138A2
:100230002504B800B9009F200000360EF700F0300A
:10024000F7057708013804382504B800B9009F2065
:1002500029290000360EF700F030F705770801383D
:100260002504B800B9009F20352908002016200871
:100270008316870000008312A015200883168700CC
:100280000000831207122012200883168700000046
:1002900083128711A011200883168700831221087A
:1002A000B9009F20330EB5000F30B5053508B600F4
:1002B0003408B700E92033080F39B500B600340818
:1002C000B700E9202012200883168700000083125F
:1002D000A0152008831687008312871D6D29000052
:1002E0007129000020162008831687000000831261
:1002F00008000130B300B40136210230AC008A207E
:100300000130A40008002808A1002A08A20029083A
:10031000A3000B138B138B1B8A293230AC008A206D
:10032000201620088316870000008312A0152008DD
:1003300083168700000083120712201220088316FC
:100340008700000083128711A01120088316870000
:1003500083122108B9009F20B601B701E9200F30B0
:10036000AC008A200130AB002B08033C031CC129E0
:100370000330B600B701E9200530AC008A20AB0A93
:10038000B4290230B600B701E9200530AC008A205C
:10039000201220088316870000008312A015200871
:1003A000831687008312871DD3290000D7290000F8
:1003B000201620088316870000008312AB012B084B
:1003C000033C031CEE292B080420AC00B300B4014D
:1003D00036210530AC008A20AB0ADF297921C030F4
:1003E0008B048A110A12E22AA8080319FA29083094
:1003F000A500FB29A50108002D0822020318032AE5
:100400002208AE00052A2D08AE002E08013A031975
:10041000132A033A0319152A013A0319182A073A2D
:1004200003191B2A1E2AB001202A4030B000202ABE
:100430001430B000202A5430B000202AB001202A05
:100440002C0823020318272A2308AF00292A2C0886
:10045000AF0001302F023007B10031088038B20000
:10046000B300B401362108002B080C3A03193F2AC7
:10047000063A0319412A023A03194E2A532A7921CE
:10048000592AA40A240822020318482A0130A40089
:100490000130AC002408AD00FC21592A1030B30013
:1004A000B4013621592A2B08B3000130B40036219B
:1004B000592A0800831603178C170C14000000003B
:1004C00083120C087F3903199E2A0313A80003170F
:1004D0000D080313A90003170F080313AA00280827
:1004E000AB003422290803178D0003132A080317D1
:1004F0008F0083168C170C140000000083120C0D63
:100500000E0D7F3903199E2A0313A80003170D0847
:100510000313A90003170F080313AA002808AB0050
:100520003422290803178D0003132A0803178F00AC
:100530008D0A03198F0A03135A2A0317031308009D
:10054000831603178C170C140000000083128C080C
:100550000319C32A0D080313A80003170F08031378
:10056000A90003170C080313AB0034222808031753
:100570008D000313290803178F008D0A03198F0AB2
:100580000313A02A031703138A110A12C12B840133
:1005900083131F3083050130A4000830A5008316A3
:1005A0001F149F141F159F1107309C00FF308312EA
:1005B000A000A601A7014E30A8001030A90002300B
:1005C000AA0083290130A800F42179210C300317F7
:1005D0008D0000308F0003135A220430A800FA3037
:1005E000AC008A20A80BEF2A133003178D000030CF
:1005F0008F0003135A220430A800FA30AC008A207E
:10060000A80BFD2A1B3003178D0000308F00031349
:100610005A220430A800FA30AC008A20A80B0B2B19
:10062000233003178D0000308F0003135A2204304B
:10063000A800FA30AC008A20A80B192B2B30031726
:100640008D0000308F0003135A220430A800FA30C6
:10065000AC008A20A80B272B303003178D00003008
:100660008F0003135A220430A800FA30AC008A200D
:10067000A80B352B343003178D0000308F00031387
:100680005A220430A800FA30AC008A20A80B432B71
:100690003A3003178D0000308F0003135A220430C4
:1006A000A800FA30AC008A20A80B512B0C30AB000C
:1006B00034220230A800FA30AC008A20A80B5B2B51
:1006C0000330AC000130AD00FC21403003178D0039
:1006D00000308F0003135A220430AC000230AD000A
:1006E000FC21463003178D0000308F0003135A227F
:1006F0000230A800FA30AC008A20A80B7A2B013017
:10070000AC00AD00FC213130AB0034220230A80037
:10071000FA30AC008A20A80B882B1430AC000130D2
:10072000AD00FC213230AB0034220230A800FA3098
:10073000AC008A20A80B972B1430AC000430AD001D
:10074000FC213330AB0034220230A800FA30AC0078
:100750008A20A80BA62B0130AC000430AD00FC2190
:100760003430AB0034220830A800FA30AC008A20C4
:10077000A80BB52B4B3003178D0000308F000313EF
:10078000A02A5B3003178D0000308F0003135A221C
:100790000830A800FA30AC008A20A80BCA2B14300D
:1007A000AC000230AD00FC21A7012308270203188A
:1007B000E72B2030AB0034220830AB003422083065
:1007C000AB0034226430AC008A20A70AD52B6330FA
:1007D00003178D0000308F0003135A220C30A8003D
:1007E000FA30AC008A20A80BF02BA801F4216C3061
:1007F00003178D0000308F0003135A220C30A8001D
:10080000FA30AC008A20A80B002C0130A800F4219B
:100810007B3003178D0000308F0003135A220C30F9
:10082000A800FA30AC008A20A80B112CE52A63003E
:02400E007A3FF7
:00000001FF
;PIC16F877A
;CRC=9B33  CREATED="05-mar-24 18:10"
