:1000000000308A0004280000840183131F30830518
:10001000263083169900A6309800903083129800FD
:1000200083161F149F141F159F1107309C00FF306B
:100030008312A00083161F149F141F159F111F13F6
:1000400083121F139F1383169F1383121F1483168B
:10005000091283129412A0122008831687008312BB
:1000600020162008831687008312A011200883160B
:100070008700013083129400003083169400010839
:10008000C73908388100831290010030F8009200CF
:1000900000308316920007309C000508850004306C
:1000A000F700F70B512854281C0883120D138316F0
:1000B0009D018312A10100308C1A0130003A03190E
:1000C00097288C1E61281A08A10021084C3A0319B0
:1000D00076281E3A03197F28073A03198828113A0F
:1000E00003198D280D3A03199228972821080C1E10
:1000F000772899008316081083120814972821087E
:100100000C1E802899008316081083120810972867
:1001100083168810831288149728831688108312F8
:1001200088109728831608118312081597285B28D2
:0201300063006A
:02400E003A3F37
:00000001FF
;PIC16F877A
;CRC=F3D1  CREATED="23-jul-24 15:44"
