:1000000001308A0029290000FF00030E8301A100AE
:100010000A08A0008A010408A2007708A300780853
:10002000A4007908A5007A08A600831383128B1E0A
:100030001B280B192C28220884002308F700240809
:10004000F8002508F9002608FA0020088A00210E89
:100050008300FF0E7F0E09008A110A122F2801303B
:10006000A7070318A80A2808003C03184028FF3AED
:10007000031D3E282708813C03184028A801A7013A
:10008000A808031D4C282908270203184C288316AA
:1000900006108312061450288316061083120610C9
:1000A000A808031D5C282A08270203185C28831669
:1000B0008610831286146028831686108312861099
:1000C000A808031D6C282B08270203186C28831628
:1000D0000611831206157028831606118312061165
:1000E0000B118A110A121B2838083602C000370883
:1000F000C1003908031C390FC1023C083E02F70059
:100100003F08FA003D08031C3D0FFA027708C200C1
:100110007A08C3004108C5004008C4004308C7006E
:100120004208C6001030C800F701FA01C50CC40C23
:10013000031CA0284608F7070318FA0A4708FA071D
:10014000FA0CF70CF90CF80CC80B96287908C100CA
:100150007808C00038083A02F7003B08FA0039086E
:10016000031C390FFA027708C2007A08C30041085D
:10017000C5004008C4004308C7004208C600F80193
:10018000F901F701FA014708031DC92846080319B8
:10019000E3281030C8000310C40DC50DF70DFA0D8B
:1001A00047087A02031DD62846087702031CDF2879
:1001B0004608F702031CFA034708FA020314F80D75
:1001C000F90DC80BCB287908C1007808C0003C089D
:1001D0007807F8007908FA003D0803183D0FFA0780
:1001E0007A08F9000800B7013508B600B901B8016E
:1001F000BB01B430BA00BD010B30BC00BF013030D0
:10020000BE0074207808A9000800B7013508B600C0
:10021000B901B801BB01B430BA00BD010B30BC005C
:10022000BF013030BE0074207808AA000800B70172
:100230003508B600B901B801BB01B430BA00BD0140
:100240000B30BC00BF013030BE0074207808AB001A
:100250000800840183131F3083050C308316990036
:10026000A2309800903083129800A801A70183164D
:100270001F149F141F159F1107309C00FF3083121D
:10028000B30083161F149F141F159F111F13831291
:100290001F139F1383169F1383121F1483160912B3
:1002A00083129412B3123308831687008312331615
:1002B0003308831687008312B3113308831687002F
:1002C0000130831294000030831694000108C7396E
:1002D00008388100831290010030F800920000304D
:1002E0008316920007309C00050885000630F70051
:1002F000F70B782900001C0883120D1383169D014B
:100300008312B501F320B5010521B5011721B40110
:1003100000308C1A0130003A0319C3298C1E8E2933
:100320001A08B40034084C3A0319A6291E3A0319D6
:10033000AB29073A0319B029113A0319B4290D3A28
:100340000319B929063A0319BE29C3295A30B50041
:10035000F320B401C329B430B500F320B401C3299C
:100360005A30B5000521C329B430B5000521B401C8
:10037000C3295A30B5001721B401C329B430B500E0
:0A0380001721B401C3298829630086
:02400E003A3F37
:00000001FF
;PIC16F877A
;CRC=3D45  CREATED="22-jul-24 18:49"
