:1000000000308A004A2800000A108A100A1182076C
:10001000FE343834DD347D343B347734F7343C34CB
:10002000FF347F340A108A100A118207EE34283414
:10003000CD346D342B346734E7342C34EF346F34E3
:100040002608F8012502031828282508F700342877
:10005000F7010830A700A50DF70D26087702031851
:10006000F700F80DA70B2B28080025308400831318
:100070000008031949280130F800F701F70B3E2862
:10008000F80B3D284A30F700F70B44284728800B2F
:100090003B280800840183131F30830507309F002D
:1000A00083160108C7390838810083129001003097
:1000B000F8009200003083169200073083129F00F0
:1000C0008316050885000330F700F70B65288312B7
:1000D0001F080C1383169F018312A1012108633CA2
:1000E000031C9F282108A5000A30A60020207808BC
:1000F000A4002108A5000A30A60020207708A3004C
:10010000A2012208093C031C9D2823080420A50005
:10011000831686018312250886001430A500352039
:1001200024081220A5008316860183122508860064
:100130001430A5003520A20A8128A10A6E28623059
:10014000A100A1080319D1282108A5000A30A600A2
:1001500020207808A4002108A5000A30A60020204D
:100160007708A300A2012208093C031CCF2823081A
:100170000420A5008316860183122508860014300A
:10018000A500352024081220A500831686018312BD
:10019000250886001430A5003520A20AB328A10343
:0601A000A1286D28630098
:02400E00693F08
:00000001FF
;PIC16F628A
;CRC=EC0A  CREATED="15-fev-24 16:10"
