:1000000004308A00862C00000A108A100A11820728
:1000100028340F34013406342010A024C62654108E
:100020003218321A201020100D0500002010202652
:100030004322A032A02044102010201000018C2068
:100040002F22203B6136F532A01EA012CC3A8A0640
:100050000000C1174410282B29103D10A5182E1997
:1000600066003530840083130008031944280630E5
:10007000F800F701F70B3A28F80B39287B30F70026
:10008000F70B4028800B372808003C184928081235
:100090004A280816831608128312BC1851288812A1
:1000A000522888168316881283123C19592808137F
:1000B0005A280817831608138312BC19612888135D
:1000C000622888178316881389108312891483166F
:1000D00089108312891008008316091183120911EF
:1000E000B908031D75280911762809158316091109
:1000F000A630F700F70B7A280000891083128910C8
:100100003A0EBB000F30BB053B08BC0045203A0847
:100110000F39BB00BC00452008008316081283126B
:10012000081283168812831288128316081383120A
:1001300008138316881383128813831609118312F8
:10014000091183168910831289100F30B5003120F0
:100150000130A7002708033C031CB6280330BC006D
:1001600045200530B5003120A70AAA280230BC007E
:100170004520A7012708033C031CC72827080420A3
:10018000A800B9012808BA006C20A70ABA288A1169
:100190000A12DB2C34080C3A0319D828063A031942
:1001A000E028073A0319E028053A0319F628FB2846
:1001B000B9010130BA006C200230B50031200129AC
:1001C0000130B5000230B600360BE728EA2840308F
:1001D000B700EB28B70101303502B7073708803880
:1001E000B800B9013808BA006C200129B9011030F3
:1001F000BA006C2001290130B9003408BA006C2023
:1002000001290800831603178C170C140000000046
:1002100083120C087F39031946290313A70003171B
:100220000D080313A80003170F080313A9002708DC
:10023000B400CA20280803178D00031329080317E8
:100240008F0083168C170C140000000083120C0D15
:100250000E0D7F39031946290313A70003170D0854
:100260000313A80003170F080313A9002708B400FD
:10027000CA20280803178D000313290803178F00CD
:100280008D0A03198F0A03130229031703130800A9
:10029000831603178C170C1400000000031877292D
:1002A00083120C087F390313A80003170D080313EA
:1002B000A90003170F080313AA002808B400CA20D6
:1002C000290803178D0003132A0803178F008316CC
:1002D0008C170C140000000083120313A70B712964
:1002E0007429831603177729952983160317831218
:1002F0000C0D0E0D7F390313A80003170D0803130F
:10030000A90003170F080313AA002808B400CA2085
:10031000290803178D0003132A0803178F008D0A7D
:1003200003198F0A0313A70B48290800AF0104081B
:10033000AE002F10831B2F14280EF038AA00AA0736
:10034000E23EAB00323EAD0028080F39AB07AB07E9
:10035000AD07E93EAC00AC07AC07270E0F39AC0780
:10036000AD07AC0DAD0DAD09AD0D27080F39AD07CB
:10037000AA0D0730A9000A30AD07AC03031CBC2945
:10038000AC07AB03031CC029AB07AA03031CC42999
:10039000AA07A903031CC829293084008313073046
:1003A0002E052E1384072D30040203192E17000882
:1003B000F700031DE3292E1BE3292E1AF529AE1998
:1003C000E3292030E629AE152E123030F707A801B8
:1003D0000408A7002810831B28147708B400CA203B
:1003E00027088400831328188317840A2E1FD32913
:1003F0008A110A121E2D8E30F7002808F8002708EF
:10040000F900FA01F808031D0F2A7908F800F9012C
:100410000830F702F808031D0F2AF701172A031006
:10042000F81B162AF90DF80DF7030F2AF8138A1195
:100430000A12292D340803198A2ABC003808031926
:100440008A2ABC0703182B2A7F30BC02031C8A2A85
:1004500003198A2A2F2A8130BC0703188A2A3C08EC
:10046000F700F801F901FA013508C000C017360895
:10047000BF003708BE001830BC00BD013E1C582A22
:100480003B08FA07031C4A2AF90A031D4A2AF80AFC
:100490000319BD173A08F907031C512AF80A031972
:1004A000BD173908B600B6173608F8070318BD1788
:1004B000BD0DF80CF90CFA0CC00CBF0CBE0C0310EF
:1004C000BC0B3D2A0130F70703188A2AF81B6F2A54
:1004D000C00DFA0DF90DF80DF70303198A2AC01F94
:1004E000802AFA0A031D802AF90A031D802AF80AC5
:1004F000031D802AF80CF90CFA0CF70A03198A2A52
:100500003508BD003908BD06BD1F882AF8178E2A98
:10051000F8138E2AF701F801F901FA0108002B08F7
:100520000319542BB7002F080319542BB702031CCF
:100530009E2A7F30B7070318542BA42A8130B702B4
:10054000031C542B0319542B3708F700F801F90149
:10055000FA01B6012C08B500B5172D08B4002E0815
:10056000B3001930B7003208B3020318C72A0130AC
:10057000B4020318C72AB5020318C72AB602031823
:10058000C72AB60AB50AB40A3208B307F92A3108ED
:10059000B4020318E22A0130B5020318E22AB602B7
:1005A0000318E22AB60AB50A3108B4073208B307BD
:1005B000031CF92AB40A031DF92AB50A031DF92AF6
:1005C000B60AF92A30088038B5020318F82A013033
:1005D000B6020318F82AB60A30088038B507310881
:1005E000B407031CD62AB50A031DD62AB60AD62A92
:1005F0007A14B70BFC2A072B0310B30DB40DB50DFD
:10060000B60D0310FA0DF90DF80DB80DB32A381C0C
:100610000F2B0310F80CF90CFA0CB80C122BF70383
:100620000319542BB81B3B2B0310B30DB40DB50DA0
:10063000B60D3208B3020318272B0130B402031899
:10064000272BB5020318272BB602031C4A2B3108AF
:10065000B4020318322B0130B5020318322BB60254
:10066000031C4A2B30088038B50203183B2B01309D
:10067000B602031C4A2BFA0A031D4A2BF90A031D72
:100680004A2BF80A031D4A2BF70A0319542BF80CBE
:10069000F90CFA0C2C08B7003008B706B71F522B1C
:1006A000F817582BF813582BF701F801F901FA0144
:1006B0008A110A12562DF701F801F901FA01BC015D
:1006C000BD01BE01BF013B083A04390438040319D7
:1006D000992B2030C0000310B40DB50DB60DB70D29
:1006E000BC0DBD0DBE0DBF0D3B083F02031D822B8F
:1006F0003A083E02031D822B39083D02031D822B5E
:1007000038083C02031C932B3808BC023908031C30
:10071000390FBD023A08031C3A0FBE023B08031C06
:100720003B0FBF020314F70DF80DF90DFA0DC00BC6
:100730006B2B3C308400831308000408AC002B08AA
:10074000AE000319BC2B2A08B7002908B6002808F8
:10075000B5002708B400BB01BA012030B9008230CF
:10076000B8001A227A08AA007908A9007808A80017
:100770007708A700AE0BA32B2A08B7002908B600FC
:100780002808B5002708B4003408B63CB400FA01C4
:100790003508B800B5170310B50CB60CB70CFA0C39
:1007A000F90CF80CF70CB40BCB2BB81FE22BF709A4
:1007B000F809F909FA09F70A0319F80A0319F90AF5
:1007C0000319FA0A7A08AA007908A9007808A8008B
:1007D0007708A700AA1FF92BAC03AC16A709A80934
:1007E000A909AA09A70A0319A80A0319A90A03193A
:1007F000AA0A3B30B3009A30B200CA30B100B0014F
:100800000A30AE002B080319AC0A2A08B7002908E1
:10081000B6002808B5002708B4003308BB0032082A
:10082000BA003108B9003008B8005B230008A700FF
:10083000840A0008A800840A0008A900840A0008A5
:10084000AA00FD308407F708031D392C2B0A2E025D
:100850000319392C2C0803193B2C0F392E020319CC
:10086000332C03186B2CAC1B6B2C2C1B3B2C20301B
:10087000672C2030AC05AC1E492CAC122B08031D94
:10088000AC037708AC002D30B400CA202C08F70068
:10089000AC012B082E02031D572C7708AC002E301C
:1008A000B400CA202C08F7002030AC0500303030EE
:1008B000AC1E672CAC122B08031DAC037708AC00F0
:1008C0002D30B400CA202C08F700AC013030F707F7
:1008D0007708B400CA203308B7003208B6003108E0
:1008E000B5003008B400BB01BA01B9010A30B80044
:1008F0005B237A08B3007908B2007808B100770862
:10090000B000AE0B052C8A110A12752D84018313D9
:100910001F30830583161F149F141F159F11073066
:100920009C00FF308312A000A201A101A601A50135
:10093000A401A30183161F109F101F159F111F17DD
:1009400083121F179F1383169F1783121F1483167A
:10095000091283129412A0122008831687008312B2
:1009600020162008831687008312A0112008831602
:100970008700013083129400003083169400010830
:10098000C73908388100831290010030F8009200C6
:1009900000308316920007309C0005088500103057
:1009A000F700F70BD12C00001C0883120D138316DF
:1009B0009D0183128D283230B50031200030F800BF
:1009C0001F08C73978049F005330F700F70BE62C57
:1009D0000C30B400CA200C3003178D0000308F009B
:1009E00003130221163003178D0000308F0003130C
:1009F00002210830A700FA30B5003120A70BFB2CEC
:100A00001F151F19012D83161E088312A1001E0831
:100A1000A2005330F700F70B0B2D1F3003178D008A
:100A200000308F0003100D300313A7004821103051
:100A300084002208A8002108A70096290A30B400E3
:100A4000CA200D30B400CA202208A8002108A7003F
:100A5000FB297708A7007808A8007908A9007A0878
:100A6000AA00B7007908B6007808B5007708B40086
:100A7000BB01BA012030B9008130B8001A227708D2
:100A8000A7007808A8007908A9007A08AA00AE0093
:100A90007908AD007808AC007708AB00B201C0302F
:100AA000B1007F30B0008830AF008F2A7A08A600EE
:100AB0007908A5007808A4007708A3002930031757
:100AC0008D0000308F0003100A300313A700482167
:100AD000893084002608AA002508A9002408A80057
:100AE0002308A7000230AB009D2B0230A7009630F0
:0C0AF000B5003120A70B772D002D63000E
:02400E003A3F37
:00000001FF
;PIC16F877A
;CRC=D701  CREATED="02-abr-24 15:38"
